:100000000C942A000C943F000C943F000C943F0089
:100010000C943F000C943F000C943F000C943F0064
:100020000C943F000C943F000C943F000C943F0054
:100030000C943F000C943F000C943F000C943F0044
:100040000C943F000C943F000C943F000C943F0034
:100050000C943F0011241FBECFE5D8E0DEBFCDBF1A
:1000600010E0A0E6B0E0E0E7F1E002C005900D92FC
:10007000A036B107D9F70E9441000C94B6000C9449
:100080000000CF93DF9300D0CDB7DEB70E946800A9
:100090002FEB84ED91E0215080409040E1F700C0CB
:1000A000000019821A82BE016E5F7F4FCE01019659
:1000B0000E948000F8CF80EB87BB87E58DB908955B
:1000C0008FB9779BFECF0895779BFECF8FB10895B0
:1000D0000E945B0088B3806188BB80E80E9460005A
:1000E00084E00E94600088B38F7E88BB2FEB84ED94
:1000F00091E0215080409040E1F700C00000089559
:100100000F931F93CF93DF938C01EB0188B3806132
:1001100088BB82E00E94600080E00E94600088B39B
:100120008F7E88BB87EE93E00197F1F700C0000057
:100130000E946400F801808388B3806188BB81E0FD
:100140000E94600080E00E94600088B38F7E88BBC0
:1001500087EE93E00197F1F700C000000E94640071
:100160008883DF91CF911F910F910895F894FFCF6D
:00000001FF
